{
  "contractName": "AccessControl",
  "abi": [
    {
      "constant": true,
      "inputs": [
        {
          "name": "",
          "type": "address"
        },
        {
          "name": "",
          "type": "address"
        },
        {
          "name": "",
          "type": "uint256"
        }
      ],
      "name": "badRequestList",
      "outputs": [
        {
          "name": "requester",
          "type": "address"
        },
        {
          "name": "owner",
          "type": "address"
        },
        {
          "name": "deviceId",
          "type": "bytes32"
        },
        {
          "name": "time",
          "type": "uint256"
        },
        {
          "name": "banUntil",
          "type": "uint256"
        }
      ],
      "payable": false,
      "stateMutability": "view",
      "type": "function"
    },
    {
      "constant": true,
      "inputs": [
        {
          "name": "",
          "type": "uint256"
        }
      ],
      "name": "users",
      "outputs": [
        {
          "name": "",
          "type": "address"
        }
      ],
      "payable": false,
      "stateMutability": "view",
      "type": "function"
    },
    {
      "constant": true,
      "inputs": [],
      "name": "minInterval",
      "outputs": [
        {
          "name": "",
          "type": "uint256"
        }
      ],
      "payable": false,
      "stateMutability": "view",
      "type": "function"
    },
    {
      "constant": true,
      "inputs": [
        {
          "name": "",
          "type": "address"
        },
        {
          "name": "",
          "type": "address"
        }
      ],
      "name": "timeOfLastRequest",
      "outputs": [
        {
          "name": "",
          "type": "uint256"
        }
      ],
      "payable": false,
      "stateMutability": "view",
      "type": "function"
    },
    {
      "constant": true,
      "inputs": [
        {
          "name": "",
          "type": "address"
        },
        {
          "name": "",
          "type": "uint256"
        }
      ],
      "name": "userDevices",
      "outputs": [
        {
          "name": "deviceId",
          "type": "bytes32"
        },
        {
          "name": "dailyPrice",
          "type": "uint256"
        }
      ],
      "payable": false,
      "stateMutability": "view",
      "type": "function"
    },
    {
      "inputs": [
        {
          "name": "_minInterval",
          "type": "uint256"
        }
      ],
      "payable": false,
      "stateMutability": "nonpayable",
      "type": "constructor"
    },
    {
      "anonymous": false,
      "inputs": [
        {
          "indexed": true,
          "name": "owner",
          "type": "address"
        },
        {
          "indexed": false,
          "name": "deviceId",
          "type": "bytes32"
        },
        {
          "indexed": false,
          "name": "dailyPrice",
          "type": "uint256"
        }
      ],
      "name": "NewDeviceAdded",
      "type": "event"
    },
    {
      "anonymous": false,
      "inputs": [
        {
          "indexed": true,
          "name": "requester",
          "type": "address"
        },
        {
          "indexed": true,
          "name": "owner",
          "type": "address"
        },
        {
          "indexed": true,
          "name": "deviceId",
          "type": "bytes32"
        },
        {
          "indexed": false,
          "name": "publicKey",
          "type": "bytes"
        },
        {
          "indexed": false,
          "name": "time",
          "type": "uint256"
        },
        {
          "indexed": false,
          "name": "fromTime",
          "type": "uint256"
        },
        {
          "indexed": false,
          "name": "toTime",
          "type": "uint256"
        },
        {
          "indexed": false,
          "name": "api",
          "type": "string"
        },
        {
          "indexed": false,
          "name": "txId",
          "type": "bytes32"
        }
      ],
      "name": "RequestDataSuccess",
      "type": "event"
    },
    {
      "anonymous": false,
      "inputs": [
        {
          "indexed": true,
          "name": "requester",
          "type": "address"
        },
        {
          "indexed": true,
          "name": "owner",
          "type": "address"
        },
        {
          "indexed": true,
          "name": "deviceId",
          "type": "bytes32"
        },
        {
          "indexed": false,
          "name": "description",
          "type": "string"
        },
        {
          "indexed": false,
          "name": "money",
          "type": "uint256"
        },
        {
          "indexed": false,
          "name": "time",
          "type": "uint256"
        }
      ],
      "name": "RequestDataFail",
      "type": "event"
    },
    {
      "anonymous": false,
      "inputs": [
        {
          "indexed": true,
          "name": "requester",
          "type": "address"
        },
        {
          "indexed": true,
          "name": "owner",
          "type": "address"
        },
        {
          "indexed": true,
          "name": "deviceId",
          "type": "bytes32"
        },
        {
          "indexed": false,
          "name": "time",
          "type": "uint256"
        },
        {
          "indexed": false,
          "name": "banUntil",
          "type": "uint256"
        }
      ],
      "name": "BadRequestOccured",
      "type": "event"
    },
    {
      "anonymous": false,
      "inputs": [
        {
          "indexed": true,
          "name": "requester",
          "type": "address"
        },
        {
          "indexed": true,
          "name": "owner",
          "type": "address"
        },
        {
          "indexed": true,
          "name": "txId",
          "type": "bytes32"
        },
        {
          "indexed": false,
          "name": "dataHash",
          "type": "bytes32"
        }
      ],
      "name": "DataSent",
      "type": "event"
    },
    {
      "anonymous": false,
      "inputs": [
        {
          "indexed": true,
          "name": "requester",
          "type": "address"
        },
        {
          "indexed": true,
          "name": "owner",
          "type": "address"
        },
        {
          "indexed": true,
          "name": "txId",
          "type": "bytes32"
        }
      ],
      "name": "DataReceived",
      "type": "event"
    },
    {
      "constant": false,
      "inputs": [
        {
          "name": "deviceId",
          "type": "bytes32"
        },
        {
          "name": "dailyPrice",
          "type": "uint256"
        }
      ],
      "name": "registerDevice",
      "outputs": [],
      "payable": false,
      "stateMutability": "nonpayable",
      "type": "function"
    },
    {
      "constant": false,
      "inputs": [
        {
          "name": "owner",
          "type": "address"
        },
        {
          "name": "_deviceId",
          "type": "bytes32"
        },
        {
          "name": "publicKey",
          "type": "bytes"
        },
        {
          "name": "fromTime",
          "type": "uint256"
        },
        {
          "name": "toTime",
          "type": "uint256"
        },
        {
          "name": "api",
          "type": "string"
        }
      ],
      "name": "requestData",
      "outputs": [
        {
          "name": "",
          "type": "bool"
        }
      ],
      "payable": true,
      "stateMutability": "payable",
      "type": "function"
    },
    {
      "constant": false,
      "inputs": [
        {
          "name": "requester",
          "type": "address"
        },
        {
          "name": "_txId",
          "type": "bytes32"
        },
        {
          "name": "dataHash",
          "type": "bytes32"
        }
      ],
      "name": "confirmSentData",
      "outputs": [],
      "payable": false,
      "stateMutability": "nonpayable",
      "type": "function"
    },
    {
      "constant": false,
      "inputs": [
        {
          "name": "owner",
          "type": "address"
        },
        {
          "name": "_txId",
          "type": "bytes32"
        }
      ],
      "name": "confirmReceivedData",
      "outputs": [],
      "payable": false,
      "stateMutability": "nonpayable",
      "type": "function"
    },
    {
      "constant": true,
      "inputs": [],
      "name": "getUsers",
      "outputs": [
        {
          "name": "",
          "type": "address[]"
        }
      ],
      "payable": false,
      "stateMutability": "view",
      "type": "function"
    },
    {
      "constant": true,
      "inputs": [
        {
          "name": "user",
          "type": "address"
        }
      ],
      "name": "getUserDevicesLength",
      "outputs": [
        {
          "name": "",
          "type": "uint256"
        }
      ],
      "payable": false,
      "stateMutability": "view",
      "type": "function"
    },
    {
      "constant": true,
      "inputs": [
        {
          "name": "user",
          "type": "address"
        }
      ],
      "name": "getUserDevices",
      "outputs": [
        {
          "components": [
            {
              "name": "deviceId",
              "type": "bytes32"
            },
            {
              "name": "dailyPrice",
              "type": "uint256"
            }
          ],
          "name": "",
          "type": "tuple[]"
        }
      ],
      "payable": false,
      "stateMutability": "view",
      "type": "function"
    },
    {
      "constant": true,
      "inputs": [
        {
          "name": "requester",
          "type": "address"
        },
        {
          "name": "txId",
          "type": "bytes32"
        }
      ],
      "name": "getDeposit",
      "outputs": [
        {
          "name": "",
          "type": "uint256"
        }
      ],
      "payable": false,
      "stateMutability": "view",
      "type": "function"
    },
    {
      "constant": true,
      "inputs": [
        {
          "name": "requester",
          "type": "address"
        },
        {
          "name": "owner",
          "type": "address"
        }
      ],
      "name": "getTransactionListLength",
      "outputs": [
        {
          "name": "",
          "type": "uint256"
        }
      ],
      "payable": false,
      "stateMutability": "view",
      "type": "function"
    },
    {
      "constant": true,
      "inputs": [
        {
          "name": "requester",
          "type": "address"
        },
        {
          "name": "owner",
          "type": "address"
        }
      ],
      "name": "getBadRequestListLength",
      "outputs": [
        {
          "name": "",
          "type": "uint256"
        }
      ],
      "payable": false,
      "stateMutability": "view",
      "type": "function"
    },
    {
      "constant": true,
      "inputs": [
        {
          "name": "requester",
          "type": "address"
        },
        {
          "name": "owner",
          "type": "address"
        }
      ],
      "name": "getBadRequestList",
      "outputs": [
        {
          "components": [
            {
              "name": "requester",
              "type": "address"
            },
            {
              "name": "owner",
              "type": "address"
            },
            {
              "name": "deviceId",
              "type": "bytes32"
            },
            {
              "name": "time",
              "type": "uint256"
            },
            {
              "name": "banUntil",
              "type": "uint256"
            }
          ],
          "name": "",
          "type": "tuple[]"
        }
      ],
      "payable": false,
      "stateMutability": "view",
      "type": "function"
    }
  ],
  "bytecode": "0x60806040523480156200001157600080fd5b5060405160208062002a5b833981018060405262000033919081019062000057565b80600081905550506200008d565b60006200004f825162000083565b905092915050565b6000602082840312156200006a57600080fd5b60006200007a8482850162000041565b91505092915050565b6000819050919050565b6129be806200009d6000396000f3fe6080604052600436106100e5576000357c0100000000000000000000000000000000000000000000000000000000900463ffffffff168062ce8e3e146100ea57806305f395321461011557806309b9f035146101525780631485d297146101935780631f0f0e66146101d0578063365b98b21461020d5780633fb19a531461024a57806350ab7a421461027557806359bca4ca146102b25780635fc119cd146102db578063651ad262146103045780637d725d091461033457806384d48568146103715780638bdfd444146103ae5780639243e993146103eb578063d5928be914610414575b600080fd5b3480156100f657600080fd5b506100ff610452565b60405161010c9190612551565b60405180910390f35b34801561012157600080fd5b5061013c60048036036101379190810190611ee2565b6104e0565b6040516101499190612595565b60405180910390f35b34801561015e57600080fd5b5061017960048036036101749190810190611f83565b610592565b60405161018a9594939291906124fe565b60405180910390f35b34801561019f57600080fd5b506101ba60048036036101b59190810190611fd2565b610631565b6040516101c79190612759565b60405180910390f35b3480156101dc57600080fd5b506101f760048036036101f29190810190611f47565b61081a565b6040516102049190612759565b60405180910390f35b34801561021957600080fd5b50610234600480360361022f919081019061218e565b6108a4565b60405161024191906124e3565b60405180910390f35b34801561025657600080fd5b5061025f6108e2565b60405161026c9190612759565b60405180910390f35b34801561028157600080fd5b5061029c60048036036102979190810190611f47565b6108e8565b6040516102a99190612573565b60405180910390f35b3480156102be57600080fd5b506102d960048036036102d4919081019061200e565b610a8f565b005b3480156102e757600080fd5b5061030260048036036102fd9190810190612152565b610cd7565b005b61031e6004803603610319919081019061205d565b610e73565b60405161032b91906125b7565b60405180910390f35b34801561034057600080fd5b5061035b60048036036103569190810190611ee2565b6114f7565b6040516103689190612759565b60405180910390f35b34801561037d57600080fd5b5061039860048036036103939190810190611f47565b611543565b6040516103a59190612759565b60405180910390f35b3480156103ba57600080fd5b506103d560048036036103d09190810190611f47565b611568565b6040516103e29190612759565b60405180910390f35b3480156103f757600080fd5b50610412600480360361040d9190810190611f0b565b6115f2565b005b34801561042057600080fd5b5061043b60048036036104369190810190612116565b611910565b6040516104499291906125ed565b60405180910390f35b606060018054806020026020016040519081016040528092919081815260200182805480156104d657602002820191906000526020600020905b8160009054906101000a900473ffffffffffffffffffffffffffffffffffffffff1673ffffffffffffffffffffffffffffffffffffffff168152602001906001019080831161048c575b5050505050905090565b6060600260008373ffffffffffffffffffffffffffffffffffffffff1673ffffffffffffffffffffffffffffffffffffffff168152602001908152602001600020805480602002602001604051908101604052809291908181526020016000905b8282101561058757838290600052602060002090600202016040805190810160405290816000820154815260200160018201548152505081526020019060010190610541565b505050509050919050565b6003602052826000526040600020602052816000526040600020818154811015156105b957fe5b906000526020600020906005020160009250925050508060000160009054906101000a900473ffffffffffffffffffffffffffffffffffffffff16908060010160009054906101000a900473ffffffffffffffffffffffffffffffffffffffff16908060020154908060030154908060040154905085565b600080600090505b600560008573ffffffffffffffffffffffffffffffffffffffff1673ffffffffffffffffffffffffffffffffffffffff16815260200190815260200160002060003373ffffffffffffffffffffffffffffffffffffffff1673ffffffffffffffffffffffffffffffffffffffff168152602001908152602001600020805490508110156108125782600560008673ffffffffffffffffffffffffffffffffffffffff1673ffffffffffffffffffffffffffffffffffffffff16815260200190815260200160002060003373ffffffffffffffffffffffffffffffffffffffff1673ffffffffffffffffffffffffffffffffffffffff1681526020019081526020016000208281548110151561074a57fe5b906000526020600020906003020160000154141561080557600560008573ffffffffffffffffffffffffffffffffffffffff1673ffffffffffffffffffffffffffffffffffffffff16815260200190815260200160002060003373ffffffffffffffffffffffffffffffffffffffff1673ffffffffffffffffffffffffffffffffffffffff168152602001908152602001600020818154811015156107eb57fe5b906000526020600020906003020160020154915050610814565b8080600101915050610639565b505b92915050565b6000600560008473ffffffffffffffffffffffffffffffffffffffff1673ffffffffffffffffffffffffffffffffffffffff16815260200190815260200160002060008373ffffffffffffffffffffffffffffffffffffffff1673ffffffffffffffffffffffffffffffffffffffff16815260200190815260200160002080549050905092915050565b6001818154811015156108b357fe5b906000526020600020016000915054906101000a900473ffffffffffffffffffffffffffffffffffffffff1681565b60005481565b6060600360008473ffffffffffffffffffffffffffffffffffffffff1673ffffffffffffffffffffffffffffffffffffffff16815260200190815260200160002060008373ffffffffffffffffffffffffffffffffffffffff1673ffffffffffffffffffffffffffffffffffffffff168152602001908152602001600020805480602002602001604051908101604052809291908181526020016000905b82821015610a83578382906000526020600020906005020160a060405190810160405290816000820160009054906101000a900473ffffffffffffffffffffffffffffffffffffffff1673ffffffffffffffffffffffffffffffffffffffff1673ffffffffffffffffffffffffffffffffffffffff1681526020016001820160009054906101000a900473ffffffffffffffffffffffffffffffffffffffff1673ffffffffffffffffffffffffffffffffffffffff1673ffffffffffffffffffffffffffffffffffffffff168152602001600282015481526020016003820154815260200160048201548152505081526020019060010190610986565b50505050905092915050565b60008090505b600560008573ffffffffffffffffffffffffffffffffffffffff1673ffffffffffffffffffffffffffffffffffffffff16815260200190815260200160002060003373ffffffffffffffffffffffffffffffffffffffff1673ffffffffffffffffffffffffffffffffffffffff16815260200190815260200160002080549050811015610c6b5782600560008673ffffffffffffffffffffffffffffffffffffffff1673ffffffffffffffffffffffffffffffffffffffff16815260200190815260200160002060003373ffffffffffffffffffffffffffffffffffffffff1673ffffffffffffffffffffffffffffffffffffffff16815260200190815260200160002082815481101515610ba657fe5b9060005260206000209060030201600001541415610c5e5781600560008673ffffffffffffffffffffffffffffffffffffffff1673ffffffffffffffffffffffffffffffffffffffff16815260200190815260200160002060003373ffffffffffffffffffffffffffffffffffffffff1673ffffffffffffffffffffffffffffffffffffffff16815260200190815260200160002082815481101515610c4857fe5b9060005260206000209060030201600101819055505b8080600101915050610a95565b50813373ffffffffffffffffffffffffffffffffffffffff168473ffffffffffffffffffffffffffffffffffffffff167fef8c876b626439ffb24aadd43d3b6abfcbb9d64ae81a0ee79bbb23b1e732a96984604051610cca91906125d2565b60405180910390a4505050565b6000600260003373ffffffffffffffffffffffffffffffffffffffff1673ffffffffffffffffffffffffffffffffffffffff168152602001908152602001600020805490501415610d895760013390806001815401808255809150509060018203906000526020600020016000909192909190916101000a81548173ffffffffffffffffffffffffffffffffffffffff021916908373ffffffffffffffffffffffffffffffffffffffff160217905550505b600260003373ffffffffffffffffffffffffffffffffffffffff1673ffffffffffffffffffffffffffffffffffffffff1681526020019081526020016000206040805190810160405280848152602001838152509080600181540180825580915050906001820390600052602060002090600202016000909192909190915060008201518160000155602082015181600101555050503373ffffffffffffffffffffffffffffffffffffffff167ff1659376b4cac535e800c70cbb768f3b005f43b4a47e48c0c6c187c76ce2be118383604051610e679291906125ed565b60405180910390a25050565b60003373ffffffffffffffffffffffffffffffffffffffff1685805190602001206001900473ffffffffffffffffffffffffffffffffffffffff16141515610eba57600080fd5b428311158015610ec957508383115b1515610f0a576040517f08c379a0000000000000000000000000000000000000000000000000000000008152600401610f0190612739565b60405180910390fd5b600080905060008090505b600260008a73ffffffffffffffffffffffffffffffffffffffff1673ffffffffffffffffffffffffffffffffffffffff168152602001908152602001600020805490508110156113f55787600260008b73ffffffffffffffffffffffffffffffffffffffff1673ffffffffffffffffffffffffffffffffffffffff16815260200190815260200160002082815481101515610fac57fe5b90600052602060002090600202016000015414156113e857600191506000610fd5338b8b611950565b141561137a57600260008a73ffffffffffffffffffffffffffffffffffffffff1673ffffffffffffffffffffffffffffffffffffffff1681526020019081526020016000208181548110151561102757fe5b90600052602060002090600202016001015462015180600162015180898903010381151561105157fe5b04023410151561130d576000338a42604051602001808473ffffffffffffffffffffffffffffffffffffffff1673ffffffffffffffffffffffffffffffffffffffff166c010000000000000000000000000281526014018373ffffffffffffffffffffffffffffffffffffffff1673ffffffffffffffffffffffffffffffffffffffff166c010000000000000000000000000281526014018281526020019350505050604051602081830303815290604052805190602001209050600560003373ffffffffffffffffffffffffffffffffffffffff1673ffffffffffffffffffffffffffffffffffffffff16815260200190815260200160002060008b73ffffffffffffffffffffffffffffffffffffffff1673ffffffffffffffffffffffffffffffffffffffff1681526020019081526020016000206060604051908101604052808381526020017f30783000000000000000000000000000000000000000000000000000000000008152602001348152509080600181540180825580915050906001820390600052602060002090600302016000909192909190915060008201518160000155602082015181600101556040820151816002015550505042600460003373ffffffffffffffffffffffffffffffffffffffff1673ffffffffffffffffffffffffffffffffffffffff16815260200190815260200160002060008c73ffffffffffffffffffffffffffffffffffffffff1673ffffffffffffffffffffffffffffffffffffffff16815260200190815260200160002081905550888a73ffffffffffffffffffffffffffffffffffffffff163373ffffffffffffffffffffffffffffffffffffffff167fde0913b27035da380ebc0a9b195d3df20a982d6abed5ace4ffe8b138e4a0411f8b428c8c8c896040516112f996959493929190612616565b60405180910390a4600193505050506114ed565b878973ffffffffffffffffffffffffffffffffffffffff163373ffffffffffffffffffffffffffffffffffffffff167f098997de65d713240d719c093acf49b714ae6ea26b601d333ce6819f93aa5988344260405161136d929190612685565b60405180910390a46113e3565b878973ffffffffffffffffffffffffffffffffffffffff163373ffffffffffffffffffffffffffffffffffffffff167f098997de65d713240d719c093acf49b714ae6ea26b601d333ce6819f93aa598834426040516113da9291906126c1565b60405180910390a45b6113f5565b8080600101915050610f15565b5080151561146657868873ffffffffffffffffffffffffffffffffffffffff163373ffffffffffffffffffffffffffffffffffffffff167f098997de65d713240d719c093acf49b714ae6ea26b601d333ce6819f93aa5988344260405161145d9291906126fd565b60405180910390a45b42600460003373ffffffffffffffffffffffffffffffffffffffff1673ffffffffffffffffffffffffffffffffffffffff16815260200190815260200160002060008a73ffffffffffffffffffffffffffffffffffffffff1673ffffffffffffffffffffffffffffffffffffffff1681526020019081526020016000208190555060009150505b9695505050505050565b6000600260008373ffffffffffffffffffffffffffffffffffffffff1673ffffffffffffffffffffffffffffffffffffffff168152602001908152602001600020805490509050919050565b6004602052816000526040600020602052806000526040600020600091509150505481565b6000600360008473ffffffffffffffffffffffffffffffffffffffff1673ffffffffffffffffffffffffffffffffffffffff16815260200190815260200160002060008373ffffffffffffffffffffffffffffffffffffffff1673ffffffffffffffffffffffffffffffffffffffff16815260200190815260200160002080549050905092915050565b60008090505b600560003373ffffffffffffffffffffffffffffffffffffffff1673ffffffffffffffffffffffffffffffffffffffff16815260200190815260200160002060008473ffffffffffffffffffffffffffffffffffffffff1673ffffffffffffffffffffffffffffffffffffffff1681526020019081526020016000208054905081101561190b5781600560003373ffffffffffffffffffffffffffffffffffffffff1673ffffffffffffffffffffffffffffffffffffffff16815260200190815260200160002060008573ffffffffffffffffffffffffffffffffffffffff1673ffffffffffffffffffffffffffffffffffffffff1681526020019081526020016000208281548110151561170957fe5b90600052602060002090600302016000015414156118fe578273ffffffffffffffffffffffffffffffffffffffff166108fc600560003373ffffffffffffffffffffffffffffffffffffffff1673ffffffffffffffffffffffffffffffffffffffff16815260200190815260200160002060008673ffffffffffffffffffffffffffffffffffffffff1673ffffffffffffffffffffffffffffffffffffffff168152602001908152602001600020838154811015156117c457fe5b9060005260206000209060030201600201549081150290604051600060405180830381858888f19350505050158015611801573d6000803e3d6000fd5b506000600560003373ffffffffffffffffffffffffffffffffffffffff1673ffffffffffffffffffffffffffffffffffffffff16815260200190815260200160002060008573ffffffffffffffffffffffffffffffffffffffff1673ffffffffffffffffffffffffffffffffffffffff1681526020019081526020016000208281548110151561188d57fe5b906000526020600020906003020160020181905550818373ffffffffffffffffffffffffffffffffffffffff163373ffffffffffffffffffffffffffffffffffffffff167fe46317739d1cd9623aa4abb288d949e4ca4a76dd54813cc72a4363311a4adca860405160405180910390a45b80806001019150506115f8565b505050565b60026020528160005260406000208181548110151561192b57fe5b9060005260206000209060020201600091509150508060000154908060010154905082565b600080600360008673ffffffffffffffffffffffffffffffffffffffff1673ffffffffffffffffffffffffffffffffffffffff16815260200190815260200160002060008573ffffffffffffffffffffffffffffffffffffffff1673ffffffffffffffffffffffffffffffffffffffff1681526020019081526020016000208054905090506000600360008773ffffffffffffffffffffffffffffffffffffffff1673ffffffffffffffffffffffffffffffffffffffff16815260200190815260200160002060008673ffffffffffffffffffffffffffffffffffffffff1673ffffffffffffffffffffffffffffffffffffffff16815260200190815260200160002060018303815481101515611a6357fe5b9060005260206000209060050201905060008090506000831115611b2b5760008260040154905080421015611a9757611b25565b600054600460008a73ffffffffffffffffffffffffffffffffffffffff1673ffffffffffffffffffffffffffffffffffffffff16815260200190815260200160002060008973ffffffffffffffffffffffffffffffffffffffff1673ffffffffffffffffffffffffffffffffffffffff1681526020019081526020016000205442031015611b2457601e91505b5b50611bb9565b600054600460008973ffffffffffffffffffffffffffffffffffffffff1673ffffffffffffffffffffffffffffffffffffffff16815260200190815260200160002060008873ffffffffffffffffffffffffffffffffffffffff1673ffffffffffffffffffffffffffffffffffffffff1681526020019081526020016000205442031015611bb857601e90505b5b6000811115611dd957848673ffffffffffffffffffffffffffffffffffffffff168873ffffffffffffffffffffffffffffffffffffffff167f58344c4d8ead8374259bacafaa7f3dc2999e63099cec60727da49b52c6cccfd742854201604051611c24929190612774565b60405180910390a4600360008873ffffffffffffffffffffffffffffffffffffffff1673ffffffffffffffffffffffffffffffffffffffff16815260200190815260200160002060008773ffffffffffffffffffffffffffffffffffffffff1673ffffffffffffffffffffffffffffffffffffffff16815260200190815260200160002060a0604051908101604052808973ffffffffffffffffffffffffffffffffffffffff1681526020018873ffffffffffffffffffffffffffffffffffffffff1681526020018781526020014281526020018342018152509080600181540180825580915050906001820390600052602060002090600502016000909192909190915060008201518160000160006101000a81548173ffffffffffffffffffffffffffffffffffffffff021916908373ffffffffffffffffffffffffffffffffffffffff16021790555060208201518160010160006101000a81548173ffffffffffffffffffffffffffffffffffffffff021916908373ffffffffffffffffffffffffffffffffffffffff1602179055506040820151816002015560608201518160030155608082015181600401555050505b8093505050509392505050565b6000611df282356128f9565b905092915050565b6000611e06823561290b565b905092915050565b6000611e1a823561291d565b905092915050565b600082601f8301121515611e3557600080fd5b8135611e48611e43826127ca565b61279d565b91508082526020830160208301858383011115611e6457600080fd5b611e6f838284612931565b50505092915050565b600082601f8301121515611e8b57600080fd5b8135611e9e611e99826127f6565b61279d565b91508082526020830160208301858383011115611eba57600080fd5b611ec5838284612931565b50505092915050565b6000611eda8235612927565b905092915050565b600060208284031215611ef457600080fd5b6000611f0284828501611de6565b91505092915050565b60008060408385031215611f1e57600080fd5b6000611f2c85828601611dfa565b9250506020611f3d85828601611e0e565b9150509250929050565b60008060408385031215611f5a57600080fd5b6000611f6885828601611de6565b9250506020611f7985828601611de6565b9150509250929050565b600080600060608486031215611f9857600080fd5b6000611fa686828701611de6565b9350506020611fb786828701611de6565b9250506040611fc886828701611ece565b9150509250925092565b60008060408385031215611fe557600080fd5b6000611ff385828601611de6565b925050602061200485828601611e0e565b9150509250929050565b60008060006060848603121561202357600080fd5b600061203186828701611de6565b935050602061204286828701611e0e565b925050604061205386828701611e0e565b9150509250925092565b60008060008060008060c0878903121561207657600080fd5b600061208489828a01611de6565b965050602061209589828a01611e0e565b955050604087013567ffffffffffffffff8111156120b257600080fd5b6120be89828a01611e22565b94505060606120cf89828a01611ece565b93505060806120e089828a01611ece565b92505060a087013567ffffffffffffffff8111156120fd57600080fd5b61210989828a01611e78565b9150509295509295509295565b6000806040838503121561212957600080fd5b600061213785828601611de6565b925050602061214885828601611ece565b9150509250929050565b6000806040838503121561216557600080fd5b600061217385828601611e0e565b925050602061218485828601611ece565b9150509250929050565b6000602082840312156121a057600080fd5b60006121ae84828501611ece565b91505092915050565b6121c0816128a7565b82525050565b60006121d182612849565b8084526020840193506121e383612822565b60005b82811015612215576121f98683516121b7565b61220282612880565b91506020860195506001810190506121e6565b50849250505092915050565b600061222c82612854565b80845260208401935061223e8361282f565b60005b828110156122705761225486835161243d565b61225d8261288d565b915060a086019550600181019050612241565b50849250505092915050565b60006122878261285f565b8084526020840193506122998361283c565b60005b828110156122cb576122af8683516124a5565b6122b88261289a565b915060408601955060018101905061229c565b50849250505092915050565b6122e0816128b9565b82525050565b6122ef816128c5565b82525050565b60006123008261286a565b808452612314816020860160208601612940565b61231d81612973565b602085010191505092915050565b600061233682612875565b80845261234a816020860160208601612940565b61235381612973565b602085010191505092915050565b6000601082527f4e6f7420656e6f756768206d6f6e6579000000000000000000000000000000006020830152604082019050919050565b6000600b82527f42616420726571756573740000000000000000000000000000000000000000006020830152604082019050919050565b6000601482527f44657669636520646f65736e27742065786973740000000000000000000000006020830152604082019050919050565b6000601b82527f506572696f6420796f7520726571756573742069732077726f6e6700000000006020830152604082019050919050565b60a08201600082015161245360008501826121b7565b50602082015161246660208501826121b7565b50604082015161247960408501826122e6565b50606082015161248c60608501826124d4565b50608082015161249f60808501826124d4565b50505050565b6040820160008201516124bb60008501826122e6565b5060208201516124ce60208501826124d4565b50505050565b6124dd816128ef565b82525050565b60006020820190506124f860008301846121b7565b92915050565b600060a08201905061251360008301886121b7565b61252060208301876121b7565b61252d60408301866122e6565b61253a60608301856124d4565b61254760808301846124d4565b9695505050505050565b6000602082019050818103600083015261256b81846121c6565b905092915050565b6000602082019050818103600083015261258d8184612221565b905092915050565b600060208201905081810360008301526125af818461227c565b905092915050565b60006020820190506125cc60008301846122d7565b92915050565b60006020820190506125e760008301846122e6565b92915050565b600060408201905061260260008301856122e6565b61260f60208301846124d4565b9392505050565b600060c082019050818103600083015261263081896122f5565b905061263f60208301886124d4565b61264c60408301876124d4565b61265960608301866124d4565b818103608083015261266b818561232b565b905061267a60a08301846122e6565b979650505050505050565b6000606082019050818103600083015261269e81612361565b90506126ad60208301856124d4565b6126ba60408301846124d4565b9392505050565b600060608201905081810360008301526126da81612398565b90506126e960208301856124d4565b6126f660408301846124d4565b9392505050565b60006060820190508181036000830152612716816123cf565b905061272560208301856124d4565b61273260408301846124d4565b9392505050565b6000602082019050818103600083015261275281612406565b9050919050565b600060208201905061276e60008301846124d4565b92915050565b600060408201905061278960008301856124d4565b61279660208301846124d4565b9392505050565b6000604051905081810181811067ffffffffffffffff821117156127c057600080fd5b8060405250919050565b600067ffffffffffffffff8211156127e157600080fd5b601f19601f8301169050602081019050919050565b600067ffffffffffffffff82111561280d57600080fd5b601f19601f8301169050602081019050919050565b6000602082019050919050565b6000602082019050919050565b6000602082019050919050565b600081519050919050565b600081519050919050565b600081519050919050565b600081519050919050565b600081519050919050565b6000602082019050919050565b6000602082019050919050565b6000602082019050919050565b60006128b2826128cf565b9050919050565b60008115159050919050565b6000819050919050565b600073ffffffffffffffffffffffffffffffffffffffff82169050919050565b6000819050919050565b6000612904826128cf565b9050919050565b6000612916826128cf565b9050919050565b6000819050919050565b6000819050919050565b82818337600083830152505050565b60005b8381101561295e578082015181840152602081019050612943565b8381111561296d576000848401525b50505050565b6000601f19601f830116905091905056fea265627a7a72305820b3ab654619996a8542513ebdf4ede9a2c218ed9f4f1c0f0bebf751cdb2fecfff6c6578706572696d656e74616cf50037",
  "source": "pragma solidity ^ 0.5.0;\npragma experimental ABIEncoderV2;\n\ncontract AccessControl {\n\n  uint public minInterval;\n  address[] public users;\n\n  struct Device {\n    bytes32 deviceId;\n    uint dailyPrice;\n  }\n\n  struct BadRequest {\n    address requester;\n    address owner;\n    bytes32 deviceId;\n    uint time;\n    uint banUntil;\n  }\n\n  struct Transaction {\n    bytes32 txId;\n    bytes32 dataHash;\n    uint amount;\n  }\n\n  mapping(address => Device[]) public userDevices; // owner => Devices\n\n  mapping(address => mapping(address => BadRequest[])) public badRequestList; // requester => owner => BadRequest\n\n  mapping(address => mapping(address => uint)) public timeOfLastRequest; // requester => owner => time of last request\n\n  mapping(address => mapping(address => Transaction[])) transactionList;\n\n  event NewDeviceAdded(address indexed owner, bytes32 deviceId, uint dailyPrice);\n\n  event RequestDataSuccess(address indexed requester, address indexed owner, bytes32 indexed deviceId, bytes publicKey, uint time, uint fromTime, uint toTime, string api, bytes32 txId);\n\n  event RequestDataFail(address indexed requester, address indexed owner, bytes32 indexed deviceId, string description, uint money, uint time);\n\n  event BadRequestOccured(address indexed requester, address indexed owner, bytes32 indexed deviceId, uint time, uint banUntil);\n\n  event DataSent(address indexed requester, address indexed owner, bytes32 indexed txId, bytes32 dataHash);\n\n  event DataReceived(address indexed requester, address indexed owner, bytes32 indexed txId);\n\n  constructor(uint _minInterval) public {\n    minInterval = _minInterval;\n  }\n\n  function registerDevice(bytes32 deviceId, uint dailyPrice) public {\n    if (userDevices[msg.sender].length == 0) {\n      users.push(msg.sender);\n    }\n    userDevices[msg.sender].push(Device(deviceId, dailyPrice));\n    emit NewDeviceAdded(msg.sender, deviceId, dailyPrice);\n  }\n\n  function requestData(address owner, bytes32 _deviceId, bytes memory publicKey, uint fromTime, uint toTime, string memory api) public payable returns(bool)  {\n    require(address(uint256 (keccak256 (publicKey))) == msg.sender);\n\n    require(toTime <= now && toTime > fromTime, \"Period you request is wrong\");\n\n    bool isDeviceExist = false;\n\n    for (uint i = 0; i < userDevices[owner].length; i++) {\n\n      if (userDevices[owner][i].deviceId == _deviceId) {\n        isDeviceExist = true;\n\n        if (dynamicCheck(msg.sender, owner, _deviceId) == 0) { // if banTime == 0\n          \n          if (msg.value >= (toTime - fromTime + 1 days - 1) / 1 days * userDevices[owner][i].dailyPrice) { // if enough money === success\n\n            bytes32 txId = keccak256(abi.encodePacked(msg.sender, owner, now));\n            transactionList[msg.sender][owner].push(Transaction(txId, '0x0', msg.value));\n\n            timeOfLastRequest[msg.sender][owner] = now;\n\n            emit RequestDataSuccess(msg.sender, owner, _deviceId, publicKey, now, fromTime, toTime, api, txId);\n            return true;\n\n          } else { // not enough money\n            emit RequestDataFail(msg.sender, owner, _deviceId, \"Not enough money\", msg.value, now);\n          }\n\n        }\n        else { // bad request\n          emit RequestDataFail(msg.sender, owner, _deviceId, \"Bad request\", msg.value, now);\n        }\n\n        break;\n      }\n    }\n\n    if (!isDeviceExist) { // device doesn't exist\n      emit RequestDataFail(msg.sender, owner, _deviceId, \"Device doesn't exist\", msg.value, now);\n    }\n\n    timeOfLastRequest[msg.sender][owner] = now;\n    return false;\n  }\n\n  function dynamicCheck(address requester, address owner, bytes32 _deviceId) private returns(uint){\n    \n    uint length = badRequestList[requester][owner].length;\n    BadRequest storage lastBadRequest = badRequestList[requester][owner][length - 1];\n\n    uint banTime = 0;\n    if (length > 0) {\n      uint banUntil = lastBadRequest.banUntil;\n\n      if (now < banUntil) {\n        //banTime = 2 * (banUntil - lastBadRequest.time);\n      }\n      else {\n        if ((now - timeOfLastRequest[requester][owner]) < minInterval) {\n          banTime = 30;\n        }\n      }\n    }\n    else {\n      if ((now - timeOfLastRequest[requester][owner]) < minInterval) {\n        banTime = 30;\n      }\n    }\n\n    if (banTime > 0) {\n      emit BadRequestOccured(requester, owner, _deviceId, now, now + banTime);\n      badRequestList[requester][owner].push(BadRequest(requester, owner, _deviceId, now, now + banTime));\n    }\n    return banTime;\n  }\n\n  function confirmSentData(address requester, bytes32 _txId, bytes32 dataHash) public {\n    for (uint i = 0; i < transactionList[requester][msg.sender].length; i++) {\n      if (transactionList[requester][msg.sender][i].txId == _txId) {\n        transactionList[requester][msg.sender][i].dataHash = dataHash;\n      }\n    }\n    emit DataSent(requester, msg.sender, _txId, dataHash);\n  }\n\n  function confirmReceivedData(address payable owner, bytes32 _txId) public {\n\n    for (uint i = 0; i < transactionList[msg.sender][owner].length; i++) {\n      if (transactionList[msg.sender][owner][i].txId == _txId) {\n        owner.transfer(transactionList[msg.sender][owner][i].amount);\n        transactionList[msg.sender][owner][i].amount = 0;\n        emit DataReceived(msg.sender, owner, _txId);\n      }\n    }\n\n  }\n\n  function getUsers() public view returns(address[] memory){\n    return users;\n  }\n\n  function getUserDevicesLength(address user) public view returns(uint) {\n    return userDevices[user].length;\n  }\n  \n  function getUserDevices(address user) public view returns(Device[] memory){\n      return userDevices[user];\n  }\n  \n  function getDeposit(address requester, bytes32 txId) public view returns(uint){\n    for (uint i = 0; i < transactionList[requester][msg.sender].length; i++) {\n      if (transactionList[requester][msg.sender][i].txId == txId) {\n        return transactionList[requester][msg.sender][i].amount;\n      }\n    }\n  }\n\n  function getTransactionListLength(address requester, address owner) public view returns(uint){\n    return transactionList[requester][owner].length;\n  }\n\n  function getBadRequestListLength(address requester, address owner) public view returns(uint){\n    return badRequestList[requester][owner].length;\n  }\n\n  function getBadRequestList(address requester, address owner) public view returns(BadRequest[] memory){\n    return badRequestList[requester][owner];\n  }\n\n}\n",
  "sourcePath": "/home/ice013/Documents/BachKhoa/luanvan/smart-contract/contracts/AccessControl.sol",
  "compiler": {
    "name": "solc",
    "version": "0.5.0+commit.1d4f565a.Emscripten.clang"
  },
  "schemaVersion": "3.0.6",
  "updatedAt": "2019-06-05T17:05:33.962Z",
  "devdoc": {
    "methods": {}
  },
  "userdoc": {
    "methods": {}
  }
}